:020000040800F2
:100000000000022059090008550900084D51000858
:1000100055090008550900085509000800000000AE
:10002000000000000000000000000000550900086A
:10003000550900080000000055090008D1500008CB
:100040005509000855090008550900085509000818
:100050005509000855090008550900085509000808
:10006000550900085509000855090008D94C000831
:10007000E54C000815370008F14C0008FD4C00085D
:1000800021070108B53E0008550900085509000878
:1000900055090008550900085509000855090008C8
:1000A00055090008550900085509000855090008B8
:1000B000F5FA000801FB00080DFB0008E93E000806
:1000C00055090008F53E00085509000865F30008C9
:1000D00071F300085505010885050108B9050108F7
:1000E00055090008550900080000000055090008DE
:1000F0005509000855090008550900085509000868
:10010000550900085509000819FB00087DF300088F
:10011000ED050108210601085509000855090008E8
:100120005509000855090008A1F30008D5F3000897
:100130005507010855090008550900085509000828
:1001400000000000000000000000000000000000AF
:100150005509000855090008550900085506010809
:10016000013F000855090008E1500008055100084A
:1001700055090008295100085509000855090008CB
:10018000550900085509000889060108B906010843
:1001900089F3000895F3000855090008550900087F
:1001A00055090008550900085509000855090008B7
:1001B000F9490008550900085509000855090008C3
:1001C0005509000855090008550900085509000897
:1001D0005509000855090008550900085509000887
:1001E0005509000855090008550900085509000877
:1001F0005509000855090008550900085509000867
:100200005509000855090008550900085509000856
:100210005509000855090008550900085509000846
:10022000550900085509000855090008000000009C
:10023000550900085509000800000000550900088C
:100240005509000855090008550900085509000816
:100250005509000855090008550900085509000806
:1002600055090008550900085509000855090008F6
:100270005509000855090008ED06010800000000B6
:10028000550900085509000855090008000000003C
:08029000000000005509000800
:1002980010B5054C237833B9044B13B10448AFF3B8
:1002A80000800123237010BDE80300240000000033
:1002B800B051010808B5034B1BB103490348AFF31C
:1002C800008008BD00000000EC030024B0510108C4
:1002D80081F0004102E000BF83F0004330B54FEAEF
:1002E80041044FEA430594EA050F08BF90EA020F5C
:1002F8001FBF54EA000C55EA020C7FEA645C7FEAEF
:10030800655C00F0E2804FEA5454D4EB5555B8BF11
:100318006D420CDD2C4480EA020281EA030382EA82
:10032800000083EA010180EA020281EA0303362D14
:1003380088BF30BD11F0004F4FEA01314FF4801CE7
:100348004CEA113102D0404261EB410113F0004FF9
:100358004FEA03334CEA133302D0524263EB4303B0
:1003680094EA050F00F0A780A4F10104D5F1200E4E
:100378000DDB02FA0EFC22FA05F2801841F10001A9
:1003880003FA0EF2801843FA05F359410EE0A5F17D
:1003980020050EF1200E012A03FA0EFC28BF4CF0AE
:1003A800020C43FA05F3C01851EBE37101F0004564
:1003B80007D54FF0000EDCF1000C7EEB00006EEB71
:1003C8000101B1F5801F1BD3B1F5001F0CD34908FB
:1003D8005FEA30004FEA3C0C04F101044FEA445252
:1003E80012F5800F80F09A80BCF1004F08BF5FEAD9
:1003F800500C50F1000041EB045141EA050130BDB9
:100408005FEA4C0C404141EB0101013C28BFB1F5CA
:10041800801FE9D291F0000F04BF01460020B1FA15
:1004280081F308BF2033A3F10B03B3F120020CDAE8
:100438000C3208DD02F1140CC2F10C0201FA0CF0C6
:1004480021FA02F10CE002F11402D8BFC2F1200C2B
:1004580001FA02F120FA0CFCDCBF41EA0C019040E1
:10046800E41AA2BF01EB0451294330BD6FEA04042A
:100478001F3C1CDA0C340EDC04F11404C4F1200215
:1004880020FA04F001FA02F340EA030021FA04F327
:1004980045EA030130BDC4F10C04C4F1200220FA7E
:1004A80002F001FA04F340EA0300294630BD21FABC
:1004B80004F0294630BD94F0000F83F4801306BF82
:1004C80081F480110134013D4EE77FEA645C18BF76
:1004D8007FEA655C29D094EA050F08BF90EA020F0D
:1004E80005D054EA000C04BF1946104630BD91EA05
:1004F800030F1EBF0021002030BD5FEA545C05D108
:100508004000494128BF41F0004130BD14F5800446
:100518003CBF01F5801130BD01F0004545F0FE41BA
:1005280041F470014FF0000030BD7FEA645C1ABFEF
:10053800194610467FEA655C1CBF0B46024650EA26
:10054800013406BF52EA033591EA030F41F4002152
:1005580030BD00BF90F0000F04BF0021704730B5D8
:100568004FF4806404F132044FF000054FF00001AD
:1005780050E700BF90F0000F04BF0021704730B56E
:100588004FF4806404F1320410F0004548BF404243
:100598004FF000013EE700BF42004FEAE2014FEA98
:1005A80031014FEA02701FBF12F07F4393F07F4F73
:1005B80081F06051704732F07F4208BF704793F076
:1005C8007F4F04BF41F40021704730B54FF4607489
:1005D80001F0004521F000411CE700BF50EA01028C
:1005E80008BF704730B54FF000050AE050EA010235
:1005F80008BF704730B511F0004502D5404261EBA5
:1006080041014FF4806404F132045FEA915C3FF4E5
:10061800D8AE4FF003025FEADC0C18BF03325FEA82
:10062800DC0C18BF033202EBDC02C2F1200300FA33
:1006380003FC20FA02F001FA03FE40EA0E0021FA58
:1006480002F11444BDE600BF53B94AB9002908BFF6
:1006580000281CBF4FF0FF314FF0FF3000F074B995
:10066800ADF1080C6DE904CE00F006F8DDF804E001
:10067800DDE9022304B070472DE9F047089D0446E0
:100688008E46002B4DD18A42944669D9B2FA82F23D
:1006980052B101FA02F3C2F1200120FA01F10CFA79
:1006A80002FC41EA030E94404FEA1C48210CBEFBB1
:1006B800F8F61FFA8CF708FB16E341EA034306FB3A
:1006C80007F199420AD91CEB030306F1FF3080F0C9
:1006D8001F81994240F21C81023E63445B1AA4B216
:1006E800B3FBF8F008FB103344EA034400FB07F7B8
:1006F800A7420AD91CEB040400F1FF3380F00A81F9
:10070800A74240F207816444023840EA0640E41BED
:1007180000261DB1D4400023C5E900433146BDE899
:10072800F0878B4209D9002D00F0EF800026C5E93B
:10073800000130463146BDE8F087B3FA83F6002E53
:100748004AD18B4202D3824200F2F980841A61EBCB
:10075800030301209E46002DE0D0C5E9004EDDE7E9
:1007680002B9FFDEB2FA82F2002A40F09280A1EBD1
:100778000C014FEA1C471FFA8CFE0126200CB1FB26
:10078800F7F307FB131140EA01410EFB03F088421F
:1007980008D91CEB010103F1FF3802D2884200F2AC
:1007A800CB804346091AA4B2B1FBF7F007FB10113E
:1007B80044EA01440EFB00FEA64508D91CEB0404DC
:1007C80000F1FF3102D2A64500F2BB800846A4EB37
:1007D8000E0440EA03409CE7C6F12007B34022FA22
:1007E80007FC4CEA030C20FA07F401FA06F31C4351
:1007F800F9404FEA1C4900FA06F3B1FBF9F8200C5E
:100808001FFA8CFE09FB181140EA014108FB0EF0A3
:10081800884202FA06F20BD91CEB010108F1FF3AF3
:1008280080F08880884240F28580A8F102086144FF
:10083800091AA4B2B1FBF9F009FB101144EA01410D
:1008480000FB0EFE8E4508D91CEB010100F1FF34B8
:100858006CD28E456AD90238614440EA0840A0FB50
:100868000294A1EB0E01A142C846A64656D353D026
:100878005DB1B3EB080261EB0E0101FA07F722FA4A
:1008880006F3F1401F43C5E9007100263146BDE873
:10089800F087C2F12003D8400CFA02FC21FA03F3D6
:1008A800914001434FEA1C471FFA8CFEB3FBF7F057
:1008B80007FB10360B0C43EA064300FB0EF69E427C
:1008C80004FA02F408D91CEB030300F1FF382FD215
:1008D8009E422DD9023863449B1B89B2B3FBF7F6BD
:1008E80007FB163341EA034106FB0EF38B4208D996
:1008F8001CEB010106F1FF3816D28B4214D9023ED7
:100908006144C91A46EA004638E72E46284605E7F4
:100918000646E3E61846F8E64B45A9D2B9EB0208C5
:1009280064EB0C0E0138A3E74646EAE7204694E755
:100938004046D1E7D0467BE7023B614432E7304688
:1009480009E76444023842E7704700BFFEE700BF8A
:100958000B480C4A904203D0121A0B4913F050FF6F
:100968000A480B4A904203D0121A002113F056FF8E
:1009780004F012FE13F020FF00F04EF8FEE700BF6F
:1009880000000024E4030024E4510108E8030024E3
:10099800B8420024704700BF704700BF704700BFCF
:1009A800704700BF704700BF704700BF704700BF67
:1009B80010B5154C88B0F7EE000A04F1E40EEC46C9
:1009C800BFEE000ABEE80F00ACE80F009EE80F007B
:1009D8008CE80F00694600220C4802F06BFB04F11A
:1009E800840C6C46B3EE0E0ADFED090ABCE80F0072
:1009F8000FC49CE80F0084E80F00002269460548F0
:100A080002F058FB08B010BDC8040024440C0024B0
:100A1800000070432C04002408B500211F4800F092
:100A280077FF04211D48B6EE008A00F045FC03213B
:100A38001A4800F067FC194800F08CFC184919485E
:100A480000F0ECF99FED180A164800F017FA174B5A
:100A58000122124883ED008A1A7100F079FC1448CB
:100A680012F064FDFFF7A4FF0C4800F071FC114878
:100A780012F000FE00210F4812F064FEB0EE480AA2
:100A88000C4812F065FE0B48B2EE040A12F050FE54
:100A98000949024800F00EFCFEE700BFC804002424
:100AA800000000C0640400240000B44204040024D0
:100AB8000C040024800C00245D0C000810B5574C71
:100AC80094F898312DED028B84B01BB194F89E31C7
:100AD8007F2B77D094F8881131B194F88E11A1F159
:100AE8007F01B1FA81F149094D4800F09FFB4C485C
:100AF80000F002FB4B4800F0C1F994F86E3103A9ED
:100B08004848FF2B4FF00003019103936BD000F08E
:100B180051FA019994F85E314248FF2B4FF00103D6
:100B2800019103935BD000F045FA019994F84E3196
:100B38003C48FF2B4FF00203019103934BD000F088
:100B480039FA019994F8AE313648FF2B4FF0030378
:100B580003933DD000F02EFA3348F7EE008A02F0F6
:100B6800EBF9324A324B334882ED000A83ED000A32
:100B780002F0E2F930492B4881ED000A00F082F9D1
:100B88002E4802F0C7FA2E4B2E4883ED000A00F0DB
:100B98003BFA2D4802F0BEFA2148B0EE408A00F038
:100BA800ABFA30EE680AB4EEC80AF1EE10FA1ED4B9
:100BB800264C1B4800F0A0FA84ED000A04B0BDECF6
:100BC800028B10BD224A137883F00103137081E76A
:100BD80000F0EAF9C0E700F0E7F90199B2E700F0A0
:100BE800E3F90199A2E700F0DFF9019992E70C48CF
:100BF80000F082FA30EE280A144CB4EEC80AF1EE7E
:100C080010FAD6DDB0EE480A054800F085FA94EDF2
:100C1800000A044800F032F9CBE700BFC8040024FA
:100C2800A40B0024640400242C050024C004002420
:100C3800040400246C050024C4040024440C00248B
:100C48007C0C0024080C00242C0400242804002414
:100C5800040000242DE9F043154683B006462348D6
:100C68000F4600F07BFB214800F088FBFFF726FFCA
:100C7800002D37D00024DFF888800BE032683B680D
:100C880002EB840C03EB84030134DCF80020A5425A
:100C98001A6027D098F80030002BEFD133684FEA5C
:100CA8008409134803EB8403013493ED000A8DEDA6
:100CB800000A00F0EBF80F488DED010A00F0FAF990
:100CC8000D488DED010A12F021FD01AA69460B4875
:100CD8008DED010A12F064FC3B68A5424B4483ED9C
:100CE800000AD7D103B0BDE8F08300BFC8040024D0
:100CF80064040024080C0024800C0024040400244C
:100D080004000024F8B5304E0025304C32463049F6
:100D1800304812F0BDFF256065614FF4007225620E
:100D280004F2DA40C4F8C4542B4913F069FD324682
:100D38002A49204612F0ACFF294800F08FF83246C5
:100D480028492948294C12F0A3FF294B0321294A95
:100D580023614FF4FA7362614FF4FA626362FA2313
:100D68002576254FC4E900230823C4E90755C4E9BB
:100D7800021304F057FA01239FED200AA4F860300B
:100D8800E562A565A0623846E56500F019F93246C6
:100D98001B49384612F07CFF1A4C32461A491B4848
:100DA80012F076FF32461A49284612F071FF324691
:100DB8002146184812F06CFF324621461648BDE815
:100DC800F84012F065BF00BF00000024C8040024EA
:100DD800AD090008800C002434480108A109000866
:100DE80064040024A50900080C040024A40B0024B2
:100DF8000000E03F00003040080C002400803B4722
:100E0800B10900089D090008A90900080404002484
:100E1800B5090008440C00242C04002438B50D4DF5
:100E2800044601F10C030D4418460B4A0021143402
:100E380013F0F4FC012103460020A3F10C0243E95E
:100E4800020103F5BB2344F8082C03F20C43AB4220
:100E5800EAD138BD3C70170000DC050000220649C5
:100E680010B40024C2610263046042645DF8044B5C
:100E780082654160704700BF0000A04180ED010A13
:100E8800704700BF0B688360704700BF2DE9F047CB
:100E98000022DFED3E2A034600F1FF3E816807EE9F
:100EA800902A9FED3B3AB5EE006BD961B8EEE75B4F
:100EB800D0ED013AB6EE084B9FED367A0132C3EE1B
:100EC800237A1EF8011F35EE066BA5EE446B27EE5C
:100ED800877AB7EEC77A27EE067BB7EEC77B83ED36
:100EE800067A39B9042A03F11403D7D1B0EE620A9D
:100EF800BDE8F087D3ED057ADFED276A37EE677A2C
:100F0800264DDC6893ED076AE7EE267A6668244F7B
:100F180006EB050CBDEEE77AC3ED057A17EE101A5D
:100F2800B8EEC77AA94277EEC77A28BF29461D4D81
:100F3800A1603144C4ED007A04EB8606A5FB01A943
:100F480001F101084FEAD92907FB191104EB8101C6
:100F580091ED037AA5FB0891A5FB0C95C90AED0A4A
:100F680007FB118807FB15C504EB8808D8ED036A51
:100F780076EEC76AA7EEA67AF0EE407AE6EE077A32
:100F880072EE872AC6ED037A6560ABE700000000C1
:100F98000000704200803B4717B75139FF760100C7
:100FA80000770100F11976050B68032B01D801229F
:100FB800C25470470B68032B01D80022C2547047F3
:100FC80038B504462DED028BB0EE408A04F11C05BD
:100FD80012F01EFC2846B0EE480A12F0CFFB094B6F
:100FE8002046E36012F032FC00232846A36212F088
:100FF800E1FB4FF07E5300222046A363A286BDEC9E
:10100800028B38BD00247449B5EEC00A10B5F1EE64
:1010180010FA04462DED028BB0EE408A23D4F0EE90
:10102800007AF8EE000AB2EE040AE8EE270A13F096
:101038003BF8DFED1E7A04F11C0020EE270A84ED50
:101048000A0A12F0B7FBF7EE0C6AF7EE007A4FF4D3
:10105800807388EE267AA386BDEC028B77EEC77A7A
:10106800C4ED0E7A10BD70EE000AB2EE040A13F059
:101078001BF89FED0E7ADFED0E7A2046B1EE488A16
:10108800E0EE077AC4ED037A12F0E0FBF0EE0C6AAA
:10109800B7EE007A0123C8EE267AA386BDEC028B50
:1010A80077EE877AC4ED0E7A10BD00BF00409C45EC
:1010B8000000C84200B590F8342083B08DED010AD5
:1010C8006AB190F835302BB901A912F0AFFB03B023
:1010D8005DF804FB9DED010A03B05DF804FB90F890
:1010E8003520002AF6D001A91C3012F053FB03B0BA
:1010F8005DF804FB0000000090ED097A9FED046B99
:10110800B8EE477B86EE070BB7EEC00B704700BF03
:1011180000000000004CED409FED047AC7EE007A15
:10112800FCEEE77AC0ED097A704700BF00606A47B5
:10113800C26D531C10B5012BC46AC365C162A1EB13
:1011480004012CD090F86040022BD4BF002404F096
:1011580001042CBB836D80F8614003F10C0CC4685A
:10116800013340F82C10A342836501D10023836525
:10117800A242A8BF2246002A964632DD00F12C037F
:10118800002203EB8E0C53F8041F9C450A44FAD145
:10119800B2FBFEF243689A4238BF1A46426210BD5B
:1011A80090F86130DBB907EE901A90ED047AF8EE0A
:1011B800676AD0ED097AF8EE677A27EE877AF4EE57
:1011C800C76AF1EE10FA0ADD90ED057A67EE877AC4
:1011D800F4EEE76AF1EE10FA05D54908BAE70024FB
:1011E800B8E70022D6E71C46B4E700BF38B5C26AA4
:1011F800044603680D461344994205D2436A816840
:1012080001FB032295420BD30021E268A5628A42C2
:10121800C4E9161104DD920004F1300013F0FEFA5F
:1012280029462046BDE83840FFF782BF70B50E4614
:10123800044603F0F7FF05460EB1237E33B1A16AD9
:10124800E3696D1A2676C4E9075370BD0146204646
:10125800FFF7CCFFF3E700BF10B5037D82B004466B
:1012680001335BB20375037D5BB2012B03DDFF2302
:10127800037502B010BD037D826859B240FA83F34A
:10128800019001EB81110A44197B094B41F040019F
:101298000093412303F06CF80028EAD0204603F0BD
:1012A8003DF80146204602B0BDE8104002F0A0BF5C
:1012B8006112000800F0CABBF8B5054600F0EAFB69
:1012C80005F1640405F59276284600F0FFFB2046F8
:1012D800203401F055FEB442F6D105F2644405F21B
:1012E800D447284600F0F2FB23461C3483ED000A5D
:1012F800BC42F6D1284600F0E9FB3046BDE8F8408C
:1013080001F03EBEF8B5054600F0A4FB05F1640403
:1013180005F59276284600F0D9FB2046203401F0E6
:101328002FFEB442F6D105F2644405F2D4472846AC
:1013380000F0CCFB23461C3483ED000ABC42F6D1F6
:10134800284600F0C3FB3046BDE8F84001F018BE5F
:1013580000F09CBB183002F06DB900BF38B500F141
:10136800640400F592752046203401F0E5FDAC4296
:10137800F9D12046BDE8384001F0DEBD38B500F5AA
:10138800A27400F5DA753C3001F056FE20461034A0
:1013980001F030FFAC42F9D138BD00BF2DE9F04F64
:1013A80089B08446D0F8C84404270DF10F060DF122
:1013B80007050DF117090DF11808B24640F6FE7E33
:1013C80001965E4B04AEBCF8DAB493E8030002ABB6
:1013D800F34583E8030015F8012F4FEA221102F0C4
:1013E8000F0301EB811117FB03132344B3F801200A
:1013F800C2F30B020BEB020188BF42F48052C1F327
:101408000B01A3F80120A3F803104D49019B03C960
:1014180086E803004B4913F8012F03C9019302F032
:101428000F0388E803001011BCF8DA1400EB8010F1
:10143800714517FB03032344B3F80120C2F30B02E1
:1014480001EB020088BF42F48052C0F30B00A3F8FE
:101458000120A3F8030019F8013FBCF8DA141A11A7
:1014680003F00F03714502EB821202EB830323445E
:10147800B3F80120C2F30B0201EB020042F4805BD7
:10148800C0F30B00A3F8030052D9AA45A3F801B092
:1014980097D1B4F83D2040F6FE70BCF8DA14C2F3D8
:1014A8000B028B18C3F30B03A4F83F3040F6FE730E
:1014B8009942B4F8663088BF42F48052C3F30B03F4
:1014C800A4F83D20BCF8DA145A18C2F30B02A4F8A9
:1014D800682040F6FE729142B4F86A2088BF43F44F
:1014E8008053C2F30B02A4F86630BCF8DA148B18E8
:1014F800C3F30B03A4F86C3040F6FE739942B4F8BA
:101508006E3088BF42F48052C3F30B03A4F86A20FC
:10151800BCF8DA145A188142C2F30B0288BF43F4AC
:101528008053A4F87020A4F86E3009B0BDE8F08F9D
:10153800AA45A3F801207FF444AFAAE7344A01087A
:10154800704A01087C4A01082DE9F04387B000275A
:101558000446A94905A8A94E059702F049FE059B2E
:1015680006F18402A64904F2C445C4F8C434FF2332
:10157800C4F8D0144FF0060E3946C4F8CC24C4F889
:10158800C86484F8D83401E0D4F8C8640A1101F0BA
:101598000F008B00013102EB82129BB2202906F862
:1015A80002E002EB8000D4F8C874D4F8CC6407EBEE
:1015B800000CACF80130ACF8033006F802E0D4F8BF
:1015C800CC240244A2F80130A2F80330DCD194F80C
:1015D800D2340B2B0FD0B4F8D224012304F2D44018
:1015E800A4F8D424A4F8D634039002F03BF90021DF
:1015F800039802F021FA04F59A6704F2D2494FF0F1
:10160800000817F8011B0126022304AA41F0400133
:10161800284600960391ADF8108002F081FE142050
:1016280003F002FE022304AA039928460096ADF8A7
:10163800108002F075FE142003F0F6FD4FF40052FE
:1016480002230399ADF81020284604AA009602F058
:1016580067FE142003F0E8FD052343F201620399B5
:1016680000932846ADF81020022304AA02F058FE81
:10167800B945C6D12046FFF791FE94F8D8341B0629
:10168800FBD5D4F8C824D4F8CC34C4F8CC24C4F896
:10169800C834B2F80310A3F80310B2F80710A3F87F
:1016A8000710B2F80B10A3F80B10B2F80F10A3F83C
:1016B8000F10B2F81310A3F81310B2F81710A3F80C
:1016C8001710B2F81B10A3F81B10B2F81F10A3F8DC
:1016D8001F10B2F82310A3F82310B2F82710A3F8AC
:1016E8002710B2F82B10A3F82B10B2F82F10A3F87C
:1016F8002F10B2F83310A3F83310B2F83710A3F84C
:101708003710B2F83B10A3F83B10B2F83F10A3F81B
:101718003F10B2F84410A3F84410B2F84810A3F8E8
:101728004810B2F84C10A3F84C10B2F85010A3F8B7
:101738005010B2F85410A3F85410B2F85810A3F887
:101748005810B2F85C10A3F85C10B2F86010A3F857
:101758006010B2F86410A3F86410B2F86810A3F827
:101768006810B2F86C10A3F86C10B2F87010A3F8F7
:101778007010B2F87410A3F87410B2F87810A3F8C7
:101788007810B2F87C10A3F87C10B2F88010A3F897
:101798008010FF2184F8D81494F8D83401335BB250
:1017A80084F8D83494F8D8345BB2012B04DD84F87B
:1017B800D81407B0BDE8F08394F8D81401954BB25B
:1017C80044FA81F10F4C03EB831091F8D0144123B4
:1017D8000094024441F04001284602F0C9FD002867
:1017E800E7D0284602F09AFD0146284602F000FD9F
:1017F80007B0BDE8F08300BF904A01080000003040
:1018080000010B0061120008F0B50646A9B01020CF
:10181800002400F005F903460AA806F11807ADF8F8
:101828000C3006F16405039901F012FD132000F055
:10183800F7F803460DF13900ADF81030049901F0BE
:1018480007FD112000F0ECF803460DF14A00ADF851
:101858001430059901F0FCFC142000F0E1F803466F
:101868000DF15B00ADF81830069901F0F1FC12207B
:1018780000F0D6F803461BA8ADF81C30079901F014
:10188800E7FC152000F0CCF803460DF17D00ADF81B
:101898002030089901F0DCFC0F2000F0C1F8034665
:1018A8000DF18E00ADF82430099901F0D1FC042324
:1018B80007220AA9384601F0D9FCE1B2384601F0FE
:1018C800CFFE014630460134019100F0FFF80023B5
:1018D8002846DFED0E0A203501991A4601F0FAFA7A
:1018E800062CEAD12146384601F0BAFE01463046B8
:1018F800019100F0EBF80023DFED040A019906F5E9
:1019080092701A4601F0E6FA29B0F0BD6F12033B57
:10191800F0B505462DED028B89B005F5A2749FED53
:10192800378A019100F07AF80199284600F03AF9CF
:10193800334B0DF117060DF11E0793E803000B0C4E
:101948000690ADF81C108DF81E3016F8010F00F047
:1019580067F80346B0EE480A2046ADF81430103454
:10196800059901F02DFCBE42EFD11C2005F164045D
:1019780000F056F803461B2005F59276ADF80C30BA
:1019880000F04EF803460E20ADF8103000F048F88D
:10199800ADF8180005F13C009FED180A069BDDE93B
:1019A800031201F019FB2846FFF7CEFD2846FFF782
:1019B8002BFF3021284600F06DF8284600F086F805
:1019C8002046203401F0DCFAA642F6D105F2644440
:1019D80005F2D447284600F079F823461C3483EDF5
:1019E800000ABC42F6D1284600F070F8304609B02B
:1019F800BDEC028BBDE8F04001F0C2BA0000000067
:101A0800884A0108044B06221A7083F8412083F89B
:101A1800842083F8C520704700000030704700BF5D
:101A2800202882B009D8084B03EB400213F8103085
:101A3800507843EA002002B0704701230C2043EAA3
:101A4800002002B0704700BFA44A0108143001F01A
:101A58000DBA00BF38B500F1140504462DED028B10
:101A6800284601F0BFF9284601F0B8F92846B0EE3B
:101A7800408A01F0A1F9D0ED007AF8EE677A88EE95
:101A8800277ABDEC028B84ED0E7A38BD143001F054
:101A9800A5B900BF38B500F1140504462DED028B39
:101AA800284601F08DF9284601F098F92846B0EE4D
:101AB800408A01F081F9D0ED007AF8EE677A88EE75
:101AC800277ABDEC028B84ED0E7A38BD90ED0E0AB4
:101AD800704700BFF0B5032399B000270125129382
:101AE80006462C4B09A81595CDE90E7340F2045310
:101AF800ADF84030284BCDE91357099301F0B2FEF9
:101B080009A801F08BFF002836D1244B04AF044606
:101B18000090CDF842301023394604958DF82030D6
:101B28001F4BCDE91650CDE906506846059302F0E3
:101B38005FFB0823009A01A909A8ADF804508DF8A5
:101B4800064009940295039300F0E4F800230EA9D7
:101B580038463024049303F047F903224FF07E53AC
:101B680009A906F114000B930C93CDE90942049AD4
:101B780001F0EAF819B0F0BD40F60132074B1697AC
:101B880004AFADF824200998CDF84230179500F03D
:101B980081F8DBE7040204040303000104060403DC
:101BA8000704010B2DE9F04304462DED028B83B0A9
:101BB800002948D0012140F2011200230091ADF81C
:101BC80004208DF80630304A0126304B271D304955
:101BD80004F12908626040F20272A36040F60663CD
:101BE800E16004F125092682A4F8252084F82760FD
:101BF800A4F8293084F82B6003F084FC6946054674
:101C080048B304F130008DF8066003F0D9FB072DC6
:101C180034D104F114052046FFF75CFF284601F093
:101C2800DDF82846B0EE408A01F0C6F8D0ED007A1B
:101C3800F8EE677A88EE277A84ED0E7A03B0BDEC69
:101C4800028BBDE8F08340F2011300918DF8061075
:101C5800ADF80430B7E704F1300003F0B1FB3946C2
:101C6800204602F041FD484601F0FCFD404601F0E7
:101C7800F9FD04F1120000F077F9CAE73946204669
:101C880002F032FDC5E700BF05080509050705068E
:101C9800050A060610B584B003460124ADF8040011
:101CA80003A8ADF80C30ADF80E4001F0DBFD21467D
:101CB80003A801F0C1FE204603F0B6FA002103A8EC
:101CC80001F0BAFE204603F0AFFA214603A801F05E
:101CD800B3FE04B010BD00BF10B5C2F3002384B03A
:101CE8000C46017C8DF80D2043EA4402FA240223B5
:101CF8008DF80C2003AA009402F012FB18B10124FD
:101D0800204604B010BD04460A2003F08DFA204690
:101D180004B010BD034670B543F8042B044684B0E4
:101D280007C983E80700A37983B91A210B461E2245
:101D3800FA2523742046ADF80C20022303AA009547
:101D480002F0EEFA28B1012004B070BD1B210B4649
:101D5800EDE70A2003F068FA4FF4B8520095022321
:101D6800ADF80C20204603AA217C02F0D9FA0028FD
:101D7800E9D10A2003F058FA41F2027200950223D1
:101D8800ADF80C20204603AA217C02F0C9FA0028ED
:101D9800D9D10A2003F048FA042200950223ADF8AD
:101DA8000C20204603AA217C02F0BAFA0028CAD1E6
:101DB8000A2003F039FA062200950223ADF80C2018
:101DC800204603AA217C02F0ABFA0028BBD10A20E6
:101DD80003F02AFA41F2082200950223ADF80C20FC
:101DE800204603AA217C02F09BFA0028ABD10A20E6
:101DF800064603F019FA0095022303AA217C20461F
:101E0800ADF80C6002F08CFA00289CD1304603F043
:101E18000BFA009522790C232046002A8DF80C3005
:101E280003AA4FF0020314BF622142218DF80D105E
:101E3800217C02F075FA002885D1304603F0F4F9C8
:101E48002279D4E902310B43DBB20AB943F04003EB
:101E580062790AB143F020030E22FA258DF80D307D
:101E68002046009502238DF80C2003AA217C02F05D
:101E780057FA00287FF467AF0A2003F0D5F910223B
:101E880000950223ADF80C20204603AA217C02F01D
:101E980047FA00287FF457AF0A2003F0C5F912214A
:101EA80000950223ADF80C1003AA217C204602F00D
:101EB80037FA00287FF447AF0A2003F0B5F901226A
:101EC80009212046FFF708FF003818BF01203BE72B
:101ED800F0B5102387B0234C0122002501260027E6
:101EE80002A920460195CDE902234FF48052CDE99D
:101EF80004670BF01DFB642003F0AAFD02A94FF450
:101F080080522046CDE9046702261027CDE90267F2
:101F18000BF00EFB0322102302A92046CDE9022371
:101F280000230422CDE904234FF480520BF000FB78
:101F380040F23223042202A9019310232046CDE95E
:101F48000223019A012305924FF4805204930BF067
:101F5800EFFA40F6060120460BF00AFB284607B0C8
:101F6800F0BD00BFC00C00241C4B00221C494FF0E0
:101F7800400C30B5054689B00220596007219A60A7
:101F88001A620124DA620A224FF4006EDC600692BB
:101F98002022CDE9000104200821CDE90201032017
:101FA8001021CDE9040108206946C3E904024FF471
:101FB800C072181DC3E906C24FF48052C3E909E292
:101FC8000BF08CFA38B92846FFF782FF003818BFA3
:101FD800012009B030BD204609B030BDBC0C00243A
:101FE80040410052614A0021D0B513688EB00A9171
:101FF800002B40F0B9805E4B01214FF683700C2412
:1020080011600221D3F8D4200026032742F480521D
:10201800C3F8D420D3F8D42002F480520092009A56
:10202800D3F8E02042F01002C3F8E020D3F8E02013
:1020380002F010020192019AD3F8E02042F0400227
:10204800C3F8E020D3F8E02002F040020292029A9E
:10205800D3F8E02042F00802C3F8E020D3F8E020EB
:1020680002F008020392039AD3F8E02042F4807247
:10207800C3F8E020D3F8E02002F480720492049AB6
:10208800D3F8E02042F08002C3F8E020D3F8E02043
:1020980002F080020592059AD3F8E02042F020026F
:1020A800C3F8E020D3F8E02002F020020692069A56
:1020B800D3F8E02042F00402C3F8E020D3F8E0307F
:1020C8000C9403F0040307930323079A0B93CDE9B9
:1020D800080108A9274805F041FB48F237120223F6
:1020E80008A925480C94CDE90823CDE90A6705F02D
:1020F80035FB4CF20372022308A920480C94CDE961
:102108000823CDE90A6705F029FB40F2FF620223A4
:1021180008A91B480C94CDE90823CDE90A6705F006
:102128001DFB4FF60C72022308A916480C94CDE942
:102138000823CDE90A6705F011FB4FF63F02022399
:1021480008A911480C94CDE90823CDE90A6705F0E0
:1021580005FB2022022308A90A480C94CDE90A6746
:10216800CDE9082305F0FAFA0EB0D0BDB80C00246A
:10217800004402580010025800180258000C025877
:1021880000200258001C0258001402582DE9F04F94
:10219800DFF8108406460D46144608F118002DEDA8
:1021A800028B89B000AF02F017FFD8F8183073B36C
:1021B800D8F81C30D8F80490002B43690BBF4FF0B7
:1021C800080A4FF0100A4FF0020B4FF0040BB9F158
:1021D800000F2AD0A200EA46012B02F1070222F0E2
:1021E8000702ADEB020D6846ADEB020D694600F043
:1021F8003F81022B00F0D680002B6FD02246C847C3
:10220800D5462437BD46BDEC028BBDE8F08FD8F823
:102218001C30002BF5D0D8F804904FF0080A4FF086
:10222800020B4369B9F1000FD4D1FB61D8F8003033
:10223800BB61002BE5D0D54802F040FF6B46BBF1EF
:10224800020F786108EE103AFB6900F083816A4654
:102258005146A2EBC40295466200EA46B2FBFBF285
:10226800AAEBC40085460AEB8200EE46F861ADEBA6
:10227800010DF8690EEB820CC7F810C0EC46ADEB07
:10228800010D00EB8201CCF80400CCF8081001EB3A
:1022980082013869E946CCF80C1000EB8201CCF8D1
:1022A80000A001EB8202C9E900E0C9E90212012B92
:1022B80000F06483022B00F06C82002B00F0808118
:1022C800620849466046BB69984718EE103A2437B9
:1022D8009D46BD46BDEC028BBDE8F08F002C8DD02D
:1022E8001A46D8ED0C6A9FEDB27A8446331D36F94A
:1022F80022E00CF1080C07EE90EA33F922E00232F2
:10230800F8EEE77A944267EE877A67EEA67A4CEDA4
:10231800027A07EE90EAF8EEE77A67EE877A67EED8
:10232800A67A4CED017AE2D8F9612246C847984E60
:10233800D8ED0D6A0020F9692B1D9FED9E7A9FED5F
:102348009E6ADFED9E5A22E0F4EEC67AF1EE10FAAC
:10235800C0F2C88447F6FE72D1ED017A45F8202014
:1023680066EEA77AF4EEC77AF1EE10FA40F2F08042
:10237800F4EEC67AF1EE10FAC0F2D58447F6FE7292
:1023880043F820200230083184427FF639AFD1ED7E
:10239800007A66EEA77AF4EEC77AF1EE10FAD3D88F
:1023A8003246D9E7002C3FF429AFD8ED0C6A8446B1
:1023B8009FED787A0022331D8E4656F822100CF1D4
:1023C800080C07EE901A53F822100232F8EEE77A5A
:1023D800944267EE877A67EEA67A4CED027A07EEAA
:1023E800901AF8EEE77A67EE877A67EEA67A4CEDF0
:1023F800017AE2D871462246C7F81CE0C847664E03
:10240800D8ED0D6A0020F9692B1D9FED6A7A9FEDC2
:102418006A6ADFF894C120E0F4EEC67AF1EE10FAA9
:10242800C0F279843246D1ED017A45F8202066EE73
:10243800A77AF4EEC77AF1EE10FA40F28780F4EE4C
:10244800C67AF1EE10FAC0F25E84324643F82020D4
:102458000230083184427FF6D3AED1ED007A66EEC1
:10246800A77AF4EEC77AF1EE10FAD5D86246DAE721
:10247800002C3FF4C3AED8ED0C6A86469FED477A30
:102488004FF0000C331D56F82C200EF1080E82F484
:102498000002A2F5000207EE902A53F82C200CF156
:1024A800020CF8EEE77A82F400026445A2F5000215
:1024B80067EE877A67EEA67A4EED027A07EE902AE3
:1024C800F8EEE77A67EE877A67EEA67A4EED017A3C
:1024D800D9D8F9612246C847314ED8ED0D6A002097
:1024E800F9692B1D9FED337A9FED336ADFF8BCC085
:1024F8001FE0F4EEC67AF1EE10FAC0F2FC83324621
:10250800D1ED017A45F8202066EEA77AF4EEC77A75
:10251800F1EE10FA18D9F4EEC67AF1EE10FAC0F21C
:10252800DA83324643F820200230083184427FF6AD
:1025380067AED1ED007A66EEA77AF4EEC77AF1EECF
:1025480010FAD6D86246DBE76246EBE762467DE7DB
:10255800324615E7A100D6466208073121F0070187
:10256800ADEB010DEA46ADEB010D6946ADEB0E0D85
:102578000AEB8200EC46ADEB0E0D01EB8202F8612E
:10258800E946CCE900A0C9E9001290E6100D002444
:102598000280FFFF000000300082FF7F000000344F
:1025A80082FF7F00F40C0024007E00807E0080FF04
:1025B8000000003804FF7FBF04FF7F3F00FEFF4696
:1025C800002C00F0C982BBF1020FD8F8242000F0DB
:1025D800FA827969C7F8049002EB810E5FED0C5A14
:1025E8008A00DCF808100EF104007A611A46DCF85B
:1025F8000C303B61331DD7F810903D61FD69C7E988
:1026080002CB8C46834636F92210D8ED0C7A06EEBA
:10261800101A33F9221006EE901A3EF92210B8EE7D
:10262800C66A07EE101AF8EEE66A3BF92210B8EE11
:10263800C77A26EE256A66EEA56A27EE257A26EE83
:10264800276A66EEA76A27EE277A07EE901A5108DE
:102658000232F8EEE77A0AEB8100944280ED006AD4
:1026680005EB810067EEA57AC0ED006A0CEB8100EE
:1026780009EB810180ED007A98ED0C7A67EE877A94
:10268800C1ED007ABFD8D7F804903D69D7E902CBED
:1026980060466208BB6949469847D8F82C307A6981
:1026A800D8ED0D6A1A441FED3D7A1FED3D6A2B1DCA
:1026B800904602F1040A5FED3F5A0022A84ED9E97C
:1026C80000EC51E0F4EEC67AF1EE10FAC0F2C782DF
:1026D80047F6FE7045F822000CEB0100D0ED007AB9
:1026E80066EEA77AF4EEC77AF1EE10FA4BD9F4EE5B
:1026F800C67AF1EE10FAC0F2BA8247F6FE70BBF164
:10270800020F43F822002BD0D9F808000844D0ED76
:10271800007A66EEA77AF4EEC77AF1EE10FA36D9A7
:10272800F4EEC67AF1EE10FAC0F2CD8247F6FE70EA
:1027380048F82200D9F80C000144D1ED007A66EE81
:10274800A77AF4EEC77AF1EE10FA1ED9F4EEC67A3B
:10275800F1EE10FAC0F2AF8247F6FE714AF8221085
:10276800023294427FF6B1AD51080EEB8100890028
:10277800D0ED007A66EEA77AF4EEC77AF1EE10FA99
:10278800A0D83046A6E73046B9E73146E6E73046F6
:10279800CEE7002C00F0E081BBF1020FD8F824301E
:1027A80000F0E1817A69DCF8081003EB820EC7F8C3
:1027B80004909300DFED6B5A0EF1040000227B6158
:1027C800DCF80C303B61331DD7F810903D61FD6992
:1027D800C7E902CB8C46834656F82210D8ED0C7A0E
:1027E80007EE101A53F82210B8EEC76A07EE101A4F
:1027F8005EF82210F8EEC76A07EE101A26EE256A70
:102808005BF82210B8EEC77A66EEA56A26EE276A4C
:1028180027EE257A66EEA76A27EE277A07EE901A42
:1028280051080232F8EEE77A0AEB8100944280ED13
:10283800006A05EB810067EEA57AC0ED006A0CEB33
:10284800810009EB810180ED007A98ED0C7A67EE42
:10285800877AC1ED007ABFD8D7F804903D69D7E9E7
:1028680002CB60466208BB6949469847D8F82C30C5
:102878007A69D8ED0D6A1A449FED3E7A9FED3E6A5B
:10288800131D9246DFF8E4C00022FB612B1D364E73
:10289800D9E9008E4EE0F4EEC67AF1EE10FAC0F2F5
:1028A800FC81304645F822000EEB0100D0ED007A9D
:1028B80066EEA77AF4EEC77AF1EE10FA49D9F4EE8B
:1028C800C67AF1EE10FAC0F2EF813046BBF1020F82
:1028D80043F822002AD0D9F808000844D0ED007A3D
:1028E80066EEA77AF4EEC77AF1EE10FA35D9F4EE6F
:1028F800C67AF1EE10FAC0F2C98130464AF82200D1
:10290800D9F80C000144D1ED007A66EEA77AF4EE0E
:10291800C77AF1EE10FA1ED9F4EEC67AF1EE10FA83
:10292800C0F2AD813146F86940F822100232944273
:102938007FF6CBAC510808EB81008900D0ED007A16
:1029480066EEA77AF4EEC77AF1EE10FAA3D86046DD
:10295800A8E76046BAE76146E5E76046CEE700BF0C
:102968000280FFFF000000300082FF7F007E0080B1
:102978000000003404FF7FBF04FF7F3F002C00F0FD
:10298800EB807A690021D8F82430C7F8109003EB5F
:10299800820ED7F81C909300FD610EF104021FED22
:1029A8000C6A7B61331D154656F821204808D8ED7E
:1029B8000C6ABBF1020F82F40002A2F5000207EED6
:1029C800902A53F8212082F40002B8EEE77AA2F5A3
:1029D800000227EE067A07EE902A0AEB8002F8EE4C
:1029E800E77A27EE267A67EE867A82ED007A09EB97
:1029F80080024FEA800067EEA67AC2ED007A27D0FF
:102A08005EF8212082F40002A2F5000207EE902A67
:102A180055F8212082F40002B8EEE77AA2F5000208
:102A280027EE067A07EE902ADCF80820F8EEE77A17
:102A3800024427EE267A67EE867A82ED007A98EDD0
:102A48000C7ADCF80C2067EE877A0244C2ED007A33
:102A580002318C42A8D8D7F8109060466208BB694A
:102A68004946FD699847D8F82C307A69D8ED0D6A3F
:102A78001A441FED407A1FED406A131D9246DFF895
:102A8800C4C20022FB612B1DAB4ED9E9008E4EE07B
:102A9800F4EEC67AF1EE10FAC0F2C580304645F879
:102AA80022000EEB0100D0ED007A66EEA77AF4EE74
:102AB800C77AF1EE10FA49D9F4EEC67AF1EE10FAB7
:102AC800C0F2BF803046BBF1020F43F822002AD083
:102AD800D9F808000844D0ED007A66EEA77AF4EE3B
:102AE800C77AF1EE10FA35D9F4EEC67AF1EE10FA9B
:102AF800C0F2AE8030464AF82200D9F80C000144F2
:102B0800D1ED007A66EEA77AF4EEC77AF1EE10FA04
:102B18001ED9F4EEC67AF1EE10FAC0F28B80314677
:102B2800F86940F82210023294427FF6CEAB510881
:102B380008EB81008900D0ED007A66EEA77AF4EE02
:102B4800C77AF1EE10FAA3D86046A8E76046BAE75C
:102B58006146E5E76046CEE7224649466046BB69DE
:102B68009847FFF7B2BBC7F810B0002298ED0C6A7F
:102B7800331DDFED726AD7F81CB0786956F8221059
:102B880007EE901A53F82210B8EEE77A07EE901A7B
:102B980051080232F8EEE77A27EE267A0AEB810E20
:102BA80094420BEB810167EEA67A27EE067A67EE70
:102BB800867A8EED007AC1ED007ADFD88300D7F8E7
:102BC80010B07B614DE61A46C7F810B098ED0C6A54
:102BD800331DDFED5B6AD7F81CB0786936F922102F
:102BE80007EE101A33F9221007EE901AB8EEC77ADA
:102BF80051080232F8EEE77A27EE267A0AEB810EC0
:102C080094420BEB810167EEA67A27EE067A67EE0F
:102C1800867A8EED007AC1ED007ADFD88300D7F886
:102C280010B07B6134E5F0EE675AFEEEE45A15EE1B
:102C3800900A34E7F0EE675AFEEEE45A15EE901A61
:102C48006EE7F0EE675AFEEEE45A15EE900A3AE7A0
:102C5800F0EE675AFEEEE45A15EE900A4BE767EE7F
:102C6800A57AFDEEE77A17EE900A00B232E567EE34
:102C7800A57AFDEEE77A17EE900A00B23FE5F0EE8E
:102C8800675AFEEEE05A15EE901A4CE6F0EE675AD7
:102C9800FEEEE05A15EE900A30E6F0EE675AFEEEC8
:102CA800E05A15EE900AFDE5F0EE675AFEEEE05A9E
:102CB80015EE900A0AE667EEA57AFDEEE77A17EEBA
:102CC800901A09B24AE567EEA57AFDEEE77A17EEA3
:102CD800900A00B22CE5F0EE675AFEEEE45A15EEC3
:102CE800902A1FE467EEA57AFDEEE77A17EE902AA0
:102CF80012B2FFF731BBF0EE675AFEEEE45A15EE5A
:102D0800902AFFF7FDBBF0EE675AFEEEE05A15EE8B
:102D1800902AFFF79BBBF0EE675AFEEEE05A15EEDD
:102D2800902AFFF780BB67EEA57AFDEEE77A17EEEB
:102D3800902A12B2FFF724BB82FF7F000000003008
:102D4800000000387E0080FF30B5184C154685B06D
:102D5800046004F1080EEC460FC98EE80F00D4EDAC
:102D6800047AF5EEC07A8CE80F00F1EE10FA1ADD5D
:102D7800B7EE006A94ED057A27EE277AC6EE276A41
:102D880084ED0D7AC4ED0C6A6DB1204640F8185FE9
:102D980002F022F9064903690020064A2162A2626C
:102DA800E36005B030BD012005B030BDF40C00244F
:102DB800082100300801003000680830704700BF63
:102DC800B1F5807F03680A4628BF4FF48072B1F5D9
:102DD800807F9A6094BF00200120704700681830F7
:102DE80002F05AB970B504688AB0A369E160CBB142
:102DF80004F11805284602F0EFF88446EE46E66826
:102E0800BCE80F00AEE80F00BCE80F00AEE80F000A
:102E18009CE803008EE8030069462846049601F002
:102E2800E3FFF8B9E069D8B104F11C05284602F0BF
:102E3800D3F88446EE46E468BCE80F00AEE80F001D
:102E4800BCE80F00AEE80F009CE803008EE8030022
:102E580069462846049401F0C7FF003818BF0120CE
:102E68000AB070BD01200AB070BD00BF30B504685B
:102E780083B00D46E3694BB1A3680020E26A616A3A
:102E88009B00009004F11C0002F0A8F8A368074812
:102E9800A26A9B00216A009004F1180002F09EF8D3
:102EA8000020C4E9005003B030BD00BF95210008E0
:102EB80010B4074B4FF07E513024002203201961D3
:102EC8009C60D8605DF8044B5961C3E906227047DD
:102ED800F40C0024F6EE007A9FED166A20EE207AB4
:102EE8000160F7EE006A80ED036A80ED020A27EEC2
:102EF800277AC6EE877AF4EEE67AF1EE10FA11DD5B
:102F0800F0EE667A4FF07E514FF0000C0276002208
:102F1800C0ED017AC0F814C0016143768276C0ED35
:102F2800070A7047F4EEC67AF1EE10FAEAD5F0EE29
:102F3800467AE7E7000000000268037E128807EE81
:102F4800902AFBEEC87A1BB1B7EE007A77EE677A63
:102F5800D0ED056A90ED047A77EEE67A437E67EE67
:102F6800877A0BB1F1EE677A90ED030A90ED017A5A
:102F780077EEC07AA7EE270A80ED030A704700BFF4
:102F8800837E80ED020AABB9D0ED077A27EE800A7E
:102F9800F6EE007AB7EE007A20EE270AC7EE007A3E
:102FA800F4EEC77AF1EE10FA07DDF0EE477AC0EDDD
:102FB800017A7047DFED067AE8E7F5EEC07AF1EEC0
:102FC80010FAF4D5DFED037AC0ED017A704700BF3F
:102FD8006F12033B0000000030B585B004460025A1
:102FE800ADF80C10ADF80820ADF8043002F01AF96D
:102FF800BDF80C204FF48073206004F11800228380
:10300800BDF808206383E383A283257100F02AFCBE
:1030180004F11C0000F026FC9FED060A019904F15A
:10302800080000F0CDF84FF6FF736562238405B001
:1030380030BD00BF00000000F8B5044602F0F2F809
:10304800002623682671834205D104F10800BDE8F3
:10305800F84000F0CFB8012794F82050206004F120
:103068001800BD40277100F0D9FC6DB2284394F8D0
:103078002150BD4084F8200004F11C0000F0CEFC73
:1030880094F820306DB2666203F003032843022BE4
:10309800C0B284F8210009D000F003000228D4D17E
:1030A800002BD2D14FF0FF336362CEE78307CCD138
:1030B8006762CAE7DFED167A8C46B4EE670A10B588
:1030C80004468646F1EE10FA2DED028B80ED080AD3
:1030D80048BFB0EE670AC0ED090AB0EE608A80F812
:1030E8003420BCE80F00AEE80F009CE80F008EE823
:1030F8000F0010F075FFF0EE407AB0EE480AC4ED0C
:103108000A7A10F06DFF84ED0B0ABDEC028B10BD3E
:1031180095BFD63390F8343010B50446032B4BD8FE
:10312800DFE803F03B2A1502FFF706FF60EE006AAE
:10313800D4ED087A94ED097A26EE800A37EE677A9C
:10314800E0EE077AC4ED0C7AB0EE670A10BDFFF71F
:10315800F3FE94ED0A7AD4ED0B7A77EEC77AA0EEF7
:10316800277AB0EE470A10F0C9FEF0EE407A84EDF7
:103178000C0AB0EE670A10BDFFF7DEFED4ED087A40
:1031880094ED097A20EE000A37EE677AE0EE077AC6
:10319800B0EE670AC4ED0C7A10BDFFF7CDFED4ED92
:1031A800087A94ED097A37EE677AE0EE077AB0EE9E
:1031B800670AC4ED0C7A10BDD0ED0C7AC4E700BFE5
:1031C80070B5044682B0C1F30726CDB2ADF804103D
:1031D80002F028F84FF480724FF001232060A01D00
:1031E800A571A280E671A36002B0BDE8704000F04E
:1031F80039BB00BF38B5044602F014F80022236832
:103208002271834210D00122A57AE37A954020608A
:103218002271A01D6DB243B900F000FC40B22843F2
:10322800C0B27F28A0720AD038BD00F0F7FBB0FA10
:1032380080F040092843C0B27F28A072F4D101F081
:10324800F1FF07EE900AF8EE677AC4ED037A38BD0D
:1032580082B04FF0000C0323ADF80410BDF8042031
:1032680080F810C00280438002B070472DE9F04F0B
:10327800BE4E00258FB0BE4C037006F1400342607D
:10328800074601928846202229463046C4F858311C
:10329800C4F85461CDE90355CDE90555CDE9075585
:1032A800CDE90955CDE90B5511F0B8FA2022294688
:1032B80004F59970C4F82151C4F82551C4F829516E
:1032C800C4F82D5111F0AAFA019B84F8385284F8F9
:1032D80020317A68002A5FD02B464146B64604F56D
:1032E800907599464FF0010A03EB0310D1F800B02E
:1032F800D1F804800133D1F808C02218CE6844F808
:1033080000B0C2F80480C2F808C0D660087C2EF865
:10331800029B10740A7C05F8012F002A69D07A688C
:10332800113184F838A29A42DED84FF480229148AD
:103338009DF8043008214FF000084FF00009C4F848
:1033480074310023C4E957020122C4F8643184F8B7
:103358007031C4E95A2194F83812C4E9608981B3FC
:10336800C4F88821002284F8713184F878313B78D8
:10337800C4E96322A3B3012200200121013B84F8A0
:103388009421C4E96801082B2CD8DFE803F0ABB01E
:10339800B5BABFC4C9CFD6009DF804300121C4F81E
:1033A8006421C4F874314FF4802384F87021714A81
:1033B800C4E9572308230022C4E95A130023C4E9A7
:1033C80060230123002284F87131002384F87831C6
:1033D8000323C4F888313B78C4E96322002BCAD19F
:1033E80084F89431644802F06BFF034638B1FFBE9D
:1033F800FEE77A6811319A423FF676AF95E703A95E
:103408005D48039303F0BAF80546002868D1022204
:1034180040F2FF73CDE9082300230422CDE90A23F3
:1034280094F82031002B00F0D5804FF0060921E0F8
:10343800022B00F08980012B40F0C4809AF80130FB
:10344800012B00F0C180002B4C4B18BF002306A9AC
:103458004948CDE9063902F05FFB002840F0BF80FB
:10346800013594F82031EDB2AB4240F2B380444BC1
:1034780053F825902FB207EB071704EB070A5046BD
:1034880000F0F0F905EB051323441B7C042B7DDCCD
:10349800022B00F3918000F08D806319002283F8DD
:1034A8001021E35D002BC3D19AF80130062B00F000
:1034B8008580072B00F08A80022B00F09680032B72
:1034C80000F09580002B00F09680012B00F0918091
:1034D800042B00F09280052B2A4B18BF0023B6E777
:1034E800FFBEFEE703224023C4E966237AE70722EA
:1034F8006023C4E9662375E70F228023C4E96623A5
:1035080070E71F22A023C4E966236BE73F22C0238C
:10351800C4E9662366E77F22E023C4E9662361E7FE
:10352800FF224FF48073C4E966235BE740F2FF1281
:103538004FF49073C4E9662354E740F2FF324FF426
:10354800A073C4E966234DE79AF80130042B37D0FD
:10355800052B3DD0002B40D0012B42D0022B42D06E
:10356800032B094B18BF002371E700BF0841003047
:10357800300D0024002002408C0E00240002B025EB
:10358800E84A01080000B84F0020903603233E1D8A
:1035980004EB05084FF0000B264488F8103130463C
:1035A8000BF1010B00F05EF998F8103104365B4519
:1035B800F5DC76E70123EAE70223E8E7104B46E764
:1035C800104B44E7002342E70F4B40E70F4B3EE721
:1035D8000F4B3CE70FB0BDE8F08F0E4B37E7FFBE4F
:1035E800FEE70D4B33E70D4B31E70D4B2FE70D4B46
:1035F8002DE70D4B2BE70D4B29E70D4B27E700BFB8
:103608000800900C1000C0102000F0148000501D1D
:10361800000180210004002A0008302E00106032CA
:103628000040C03A0080F03E0000524700002143AD
:103638000000844B38B5094C40F2FF724FF001117D
:1036480004F5AE75284602F047FF94F82021D4F817
:1036580054112846BDE8384002F0B2BC300D0024B1
:10366800034B0F29D3F8540198BF00EB4100704772
:10367800300D0024214B02689A4200D07047204A3E
:1036880000232048D2F8D81030B51F4C41F0200153
:1036980083B0C4F8C001092004F5E075C4E97103DA
:1036A8004FF48060C2F8D810D2F8D8204FF40061E7
:1036B800C4E9733094F8380202F02002C4F8D41137
:1036C8004FF40051984201922846C4F8D811C4E931
:1036D8007833019B14BF00234FF48073C4F8DC31A6
:1036E80003F072F908B1FFBEFEE704F5AE73C4F843
:1036F800A851C4F8F83103B030BD00BF0020024023
:103708000044025840000240300D0024014803F0F4
:10371800D3BC00BFF00E002402682DE9F84F4B4BD4
:103728009A4201D0BDE8F88F494D95F83832002B00
:10373800F8D095F82031002B77D0002405F10C093A
:1037480005F5997605F59077A04613E003F0010199
:1037580017F811BCA9F1080000F06EF9BBF1010FD0
:1037680025D895F82031013409F111090236A2B2A1
:1037780093422BD917F8012F002AF4D0D5F85431E9
:103788000021327833F81400D5F8583103EB0413CC
:1037980023F81200338801339BB233805FFA83FA2F
:1037A8003A789A42D2D88A46A6F80080D0E7CAF377
:1037B8004001A9F1040000F03FF9BBF1020FCAF380
:1037C8008001CED0484600F037F9CAE7002395F8C3
:1037D8003802204909229842C5F8C8314FF4806060
:1037E800C5F8C011C5F8C4214FF400614FF4005268
:1037F800C5F8CC3108BF4FF48073C5F8D821C5E9A6
:10380800740100221448C5E97732C5F8E42103F0B1
:10381800DBF808B1FFBEFEE795F82021D5F8541172
:103828000E48BDE8F84F02F0CBBB0A4909224FF415
:103838008060C5F8C831C5E970124FF400614FF4D3
:103848000052C5E97330C5E97512DAE70020024075
:10385800300D002440000240F00E00248C0E00249D
:10386800704700BF8378022B30B504468FB037D03D
:10387800032B33D0012B31D000230A93E378012B9B
:103888002AD0022B28D000230B93002320460C9328
:1038980001F0BCFF0546204601F0C0FF23780990DF
:1038A800082B13D8DFE803F01F3245586B7E91A42C
:1038B8000500594BD3F8E02042F48072C3F8E020A9
:1038C800D3F8E03003F480730893089B09A92846CD
:1038D80003F044FF0FB030BD0B93D6E70A93CDE752
:1038E80011230A93CAE74C4B09A92846D3F8E020CC
:1038F80042F00102C3F8E020D3F8E03003F00103FE
:103908000093009B03F02AFF0FB030BD424B09A97A
:103918002846D3F8E02042F00202C3F8E020D3F8AA
:10392800E03003F002030193019B03F017FF0FB08F
:1039380030BD394B09A92846D3F8E02042F00402EB
:10394800C3F8E020D3F8E03003F004030293029BAD
:1039580003F004FF0FB030BD2F4B09A92846D3F858
:10396800E02042F00802C3F8E020D3F8E03003F08A
:1039780008030393039B03F0F1FE0FB030BD264B01
:1039880009A92846D3F8E02042F01002C3F8E02045
:10399800D3F8E03003F010030493049B03F0DEFE39
:1039A8000FB030BD1C4B09A92846D3F8E02042F0DF
:1039B8002002C3F8E020D3F8E03003F02003059399
:1039C800059B03F0CBFE0FB030BD134B09A9284669
:1039D800D3F8E02042F04002C3F8E020D3F8E0300A
:1039E80003F040030693069B03F0B8FE0FB030BD0A
:1039F800094B09A92846D3F8E02042F08002C3F811
:103A0800E020D3F8E03003F080030793079B03F02E
:103A1800A5FE0FB030BD00BF0044025838B50546BA
:103A280001F0F4FE0446284601F0F8FE014620465F
:103A3800BDE8384004F09AB870B506460D4601F066
:103A4800E5FE0446304601F0E9FE2A1E01462046FE
:103A580018BF0122BDE8704004F08EB82DE9F84F78
:103A680004460E461746984600F18C05284606F08F
:103A780081F92028FAD120682E4B0128636106D0ED
:103A8800022843D000283ED00120BDE8F88F242327
:103A9800A3614023002004F11409E3614FF480631B
:103AA8002062A0636362C4E90A00C4E90C00C4E9A7
:103AB8001000484602F088FF08B1FFBEFEE7C4F8D0
:103AC800C490E564EFF3108A72B6DFF8709094F949
:103AD80000300A9ADFF868B089F80030CBF8002087
:103AE800E3680B9A144C22609BB9710043463A462E
:103AF800284689B204F0D8FE90B9BAF1000FC4D1B3
:103B080062B6BDE8F88F2223A361C2E74A23A36106
:103B1800BFE742463946284605F038F80028ECD079
:103B2800FF23012089F800300023CBF80030236000
:103B3800E3E700BFA0000240740F0024700F0024C8
:103B48006C0F00242DE9F84F04460E461746984698
:103B580000F18C05284606F00DF92028FAD12068D6
:103B68002D4B0128636106D0022842D000283DD0A1
:103B78000120BDE8F88F2323A36100204FF4806360
:103B880004F11409A0636362C4E90700C4E90A00E8
:103B9800C4E90C00C4E91000484602F015FF08B15A
:103BA800FFBEFEE7C4F8C890E564EFF3108A72B66A
:103BB800DFF86C9094F900300A9ADFF868B089F859
:103BC8000030CBF80020E3680B9A144C22609BB9B4
:103BD800710043463A46284689B204F01FFF90B95F
:103BE800BAF1000FC5D162B6BDE8F88F2123A361F1
:103BF800C3E74923A361C0E742463946284605F092
:103C080031F80028ECD0FF23012089F80030002388
:103C1800CBF800302360E3E7A0000240740F0024D3
:103C2800700F00246C0F00240023122270B586B098
:103C3800CDE9022304930368032B01D804230593D9
:103C4800061D841D304601F0E1FD0546304601F0B1
:103C5800E5FD034601A92846019303F07FFD2046B0
:103C680001F0D4FD034620461C4601F0D7FD01A90A
:103C780003462046019303F071FD06B070BD00BFF6
:103C8800634A0368934210B58CB028D0614A9342C6
:103C980058D0614A934200F09480604A934201D020
:103CA8000CB010BD5E4C5F48D4F8E03043F002031E
:103CB800C4F8E030D4F8E03003F002030A930A9B1A
:103CC800FFF7B2FFD4F8F43043F08003C4F8F430BF
:103CD800D4F8F43003F080030B930B9BE0E7504CCF
:103CE8005148D4F8E03043F00203C4F8E030D4F887
:103CF800E03003F002030193019BFFF795FFD4F82E
:103D0800E83000221F2043F400131146C4F8E830BD
:103D1800D4F8E83003F400130293029BD4F8D830A7
:103D280043F00103C4F8D830D4F8D83003F00103C5
:103D38000393039B02F096FC1F200CB0BDE81040D3
:103D480002F0CEBC364C3948D4F8E03043F080035A
:103D5800C4F8E030D4F8E03003F080030493049B07
:103D6800D4F8E03043F00203C4F8E030D4F8E0308F
:103D780003F002030593059BFFF756FFD4F8E830DC
:103D88000022212043F480031146C4F8E830D4F817
:103D9800E83003F480030693069BD4F8D83043F048
:103DA8000103C4F8D830D4F8D83003F001030793DE
:103DB800079B02F057FC21200CB0BDE8104002F030
:103DC8008FBC1B48FFF730FF154B00224820D3F863
:103DD800E840114644F40004C3F8E840D3F8E8404A
:103DE80004F400040894089CD3F8D84044F0010473
:103DF800C3F8D840D3F8D83003F001030993099BDE
:103E080002F030FC48200CB0BDE8104002F068BC5D
:103E18000054004000580040005C0040001C00585E
:103E28000044025800120024780F00245010002487
:103E3800281100242DE9F0431A4B87B000254FF0D4
:103E480010099E46EC46184BFF22E04667461A705A
:103E58000EF118060EF13004CDE90055CDE90255F2
:103E6800ADF80090BCE80F00CDE90455AEE80F00AE
:103E78009CE803000095ADF800908EE80300B8E8D0
:103E88000F000FC69CE803000095ADF8009086E887
:103E980003000FCF0FC49CE8030084E8030007B0B9
:103EA800BDE8F08308000024700F002410B5EFF37C
:103EB800108472B6084B1A78120602D504B962B695
:103EC80010BD1B78D82205485BB202FB03001430F2
:103ED80003F0F2F8F2E700BF700F0024780F002417
:103EE800014804F02DBF00BF04100024014804F06D
:103EF80027BF00BFDC100024014804F021BF00BF29
:103F0800B41100242DE9F04182B0EFF3108772B6A6
:103F18001C4AFF211C4C1368217023B10021116039
:103F28001A4A1068984723781B0617D5DFF864806B
:103F38000025174E444662685AB16369304693B902
:103F480023690193E368009323892188FFF786FD9D
:103F580090B101351834D836032DECD107B962B6C3
:103F680002B0BDE8F081D4E90331CDE900312389FD
:103F78002188FFF7E7FDEBE705EB450508EBC505ED
:103F88006860EBE76C0F0024700F0024740F0024A6
:103F9800780F0024080000242DE9F04182B0EFF3E7
:103FA800108772B61C4AFF211C4C1368217023B17C
:103FB800002111601A4A1068984723781B0617D504
:103FC800DFF864800025174E444662685AB1636979
:103FD800304693B923690193E368009323892188C4
:103FE800FFF73CFD90B101351834D836032DECD1DC
:103FF80007B962B602B0BDE8F081D4E90331CDE972
:10400800003123892188FFF79DFDEBE705EB450586
:1040180008EBC5056860EBE76C0F0024700F0024FF
:10402800740F0024780F0024080000242DE9F041C3
:1040380082B0EFF3108772B61C4AFF211C4C13683C
:10404800217023B1002111601A4A1068984723781B
:104058001B0617D5DFF864800025174E44466268B2
:104068005AB16369304693B923690193E3680093B1
:1040780023892188FFF7F2FC90B101351834D8362E
:10408800032DECD107B962B602B0BDE8F081D4E9DE
:104098000331CDE9003123892188FFF753FDEBE790
:1040A80005EB450508EBC5056860EBE76C0F0024D8
:1040B800700F0024740F0024780F002408000024D7
:1040C8002DE9F04182B0EFF3108772B61C4AFF2148
:1040D8001C4C1368217023B1002111601A4A106822
:1040E800984723781B0617D5DFF864800025174EFC
:1040F800444662685AB16369304693B923690193AB
:10410800E368009323892188FFF7A8FC90B1013563
:104118001834D836032DECD107B962B602B0BDE821
:10412800F081D4E90331CDE9003123892188FFF7F3
:1041380009FDEBE705EB450508EBC5056860EBE70E
:104148006C0F0024700F0024740F0024780F0024D3
:10415800080000242DE9F04182B0EFF3108772B611
:1041680004F094F91D4A1E4CFF21136821702BB1ED
:104178000021116001211B4A1068984723781B060B
:1041880017D5DFF868800025174E444662685AB193
:104198006369304693B923690193E36800932389DF
:1041A8002188FFF75BFC90B101351834D836032D10
:1041B800ECD107B962B602B0BDE8F081D4E90331A9
:1041C800CDE9003123892188FFF7BCFCEBE705EB3B
:1041D800450508EBC5056860EBE700BF6C0F0024D8
:1041E800700F0024740F0024780F002408000024A6
:1041F8002DE9F0430F68D8243F4D85B007FB04F440
:10420800032F05EB0403036040DCCB680E46012B4B
:104218003CD84DD04FF0D808B646DFF8FC9008FBE4
:104228000758BEE80F00C446ACE80F00DEF80030BF
:104238000DF1100ECCF80030D8F808C099E80F003E
:104248000EE90F000EEB8703BCF1010F53F8103C89
:10425800C8F88C3031D0BCF1020F42D0BCF1000F4D
:1042680035D0317C8C34D823002201202C4403FB28
:1042780007534900C3E92602C3F894102046C3E94E
:104288002822C3E92A2204F001F918B1012005B057
:10429800BDE8F0830146204605F070FD0028F5D101
:1042A8000146204605F094FD003818BF0120EEE7CE
:1042B8000B7C103B672BADD9E8E701F021F90F4BD8
:1042C80098420CBF0E4B0F4BC8F89030C9E701F06D
:1042D80017F90A4B98420CBF0B4B0C4BC8F890309F
:1042E800BFE701F00DF9054B98420CBF084B094B8D
:1042F800C8F89030B5E700BF780F0024000E2707F4
:104308002D0FB0303211D0205F4390608A62E030C8
:10431800200BA0101A0980103C4A01080068704759
:104328002DE9F041D0F8008082B00D4617461E46B0
:1043380008F18C04204605F01DFD2028FAD1D8F894
:104348000C3073B96D002046089C33463A46A9B232
:10435800009404F0F1F8003818BF012002B0BDE85D
:10436800F081089B32463946204604F0B9F9F2E755
:1043780000682DE9F0410468032CDDE9067821D0B6
:10438800124D2D782D0617D48E469C46EFF31083D8
:1043980072B60F4D04EB4404002025F8341005EBE9
:1043A800C4046260A4F808C06061C4E903780BB96A
:1043B80062B61846BDE8F081CDE90678BDE8F0415F
:1043C800FFF74CBB0120BDE8F08100BF700F00244F
:1043D80008000024044B10221A7483F8E82083F89C
:1043E800C02183F898227047780F002430B5002345
:1043F80095B04FF48071062204460B9306921393EE
:10440800CDE90C13CDE90E33CDE9113301F07AF87B
:1044180007282BD004F1100541F2883206A9284656
:1044280006F0E8FA28B10123184684F85C3015B084
:1044380030BD0222022306A92846CDE90023102216
:104448000123CDE9022300224FF48003CDE90423A0
:1044580005224FF0807306926A460F9341F2883323
:1044680006F034FC0028DED115B030BD032301204E
:1044780084F85C3015B030BD70B50023A4B04FF09F
:1044880080724FF480750446ADF806300D93CDE97F
:1044980010320122CDE90E53CDE91223CDE91433B0
:1044A800002943D0F02300F1100508AEADF806301E
:1044B800C02341F2883231462846089306F09AFA1A
:1044C80028B10123184684F85C3024B070BD41F24D
:1044D80088320DF10601284606F0F6FA0346002850
:1044E800EFD105224FF480711E93284616924FF0A3
:1044F80080721B9321931F9202AA9FED1F7BCDE927
:104508001C13CDE922338DED027B9FED1D7B41F21B
:10451800883316A98DED047B9FED1B7B8DED067B03
:1045280006F0D4FB0028CCD124B070BD00F11005F2
:1045380008AE612341F2883231462846089306F0D6
:1045480059FA0028BDD141F288320DF106012846FA
:1045580006F038FB0028B4D1BDF80630204623F019
:10456800780343F04003ADF80630FFF73FFF00281B
:104578009ED0A6E7AFF30080000000000100000015
:1045880010000000010000000000000000004000D2
:104598002DE9F04F00234FF4807501264FF0807805
:1045A80004462DED028BABB08DF8073013932193A1
:1045B800299314950E96CDF85C80CDE91533CDE995
:1045C8001863CDE91A33CDE92253CDE92433CDE977
:1045D800273306231C9300F095FF072808D004F121
:1045E800100741F288321CA9384606F003FA40B198
:1045F8000123184684F85C302BB0BDEC028BBDE873
:10460800F08F4FF0020A4FF0020B4FF0050941F20C
:10461800883308AA1CA93846CDF89480CDF8709044
:104628009FED2D8BCDE908AB4FF0000A4FF4800BBE
:104638008DED0A8BCDE90CAB06F048FB0028D7D1ED
:1046480041F2883238460EA906F0D4F90028CFD1B5
:10465800402341F288320DF1070138468DF80730C2
:1046680006F032FA0028C3D141F288330EA902AA13
:104678003846CDF83890CDF85C809FED197B8DEDEC
:10468800048BCDE906AB8DED027B06F01FFB0346DC
:104698000028ADD1CDF870904FF00109CDF8948085
:1046A8004FF00008219308AA29931CA9384622959F
:1046B800CDE92333CDE9273341F288338DED0A8BD9
:1046C800CDE90CABCDE9088906F000FB002893D0B2
:1046D800304684F85C608FE710000000010000009D
:1046E80040000000400000002DE9F043624CA3B0F8
:1046F8000D46046000F006FF072800F0A98028682E
:1047080023466968AA6807C31E46AB8926F8043B96
:104718003046257B677B06F04FF9E0B9574B012DF2
:104728004FF00108E061236114BF4FF480134FF488
:104738000003C4E9058893FAA3F3B3FA83F34FF4AB
:104748008079013BC4F82490C4E90B003046236209
:1047580006F0C6F838B10122134684F85C201846E2
:1047680023B0BDE8F08366230B90139041F28832A2
:1047780006A90693CDE90C90CDE90E00CDE911000C
:10478800304606F037F90028E5D1992341F28832FE
:1047980006A93046069306F02DF90028DBD105233B
:1047A8001C9019906A4614934FF08073219014A9B5
:1047B8001D9341F288339FED2A7BCDE91A90CDE90C
:1047C8001F008DED007B9FED287B30468DED027B31
:1047D8009FED277B8DED047B06F078FA0028BAD18F
:1047E80029462046FFF748FE0028B4D12046FFF7A7
:1047F800CFFE03460028AED1002FB0D11893304623
:104808000027002606AA14A9CDF86890CDE91F3321
:10481800EB2314934FF440631B934FF40053179307
:104828004FF440431C93A0231693062319934FF08B
:10483800805321934FF04073CDE906671D9306F02E
:10484800BDFA034600288AD0434684F85C8086E790
:1048580001230322184684F85C2023B0BDE8F083C6
:10486800000000000100000010000000010000002E
:104878000000000000004000D81200240050005240
:104888002DE9F04F8FB0414B0024026800AF9A42E7
:104898007C63C7E90944C7E90B4403D03C37BD46EC
:1048A800BDE8F08F3A4B40F609213A48EB46D3F879
:1048B800D42007F11C0607F1220A4FF0020942F43E
:1048C80080424FF00308C3F8D420D3F8D42002F470
:1048D8008042BA60BA68D3F8E02042F04002C3F8D8
:1048E800E020D3F8E02002F04002FA60FA68D3F83A
:1048F800E02042F02002C3F8E020D3F8E02002F0E4
:1049080020023A613A69D3F8E02042F01002C3F875
:10491800E020D3F8E02002F010027A617A69D3F837
:10492800E02042F00202C3F8E020D3F8E030F8615A
:1049380003F002033984BB61174B7B60BB697B685A
:1049480053F8040F7B6000F061FF7B680546186828
:1049580000F064FF16F8013B786207F1240128464D
:10496800C7F830807B63C7E90A9402F0F7FE564522
:10497800E5D100225C20114601F074FE5C2001F0B4
:10498800AFFE3C37DD46BD46BDE8F08F0050005213
:10499800004402580A0A090934130024114B02681A
:1049A8009A4200D07047104A70B5D2F8D4300F4CF4
:1049B80023F4804304F11806C2F8D43054F8040FE5
:1049C80000F024FF0546206800F028FF014628462D
:1049D80003F004F8B442F1D15C20BDE8704001F066
:1049E8008DBE00BF0050005200440258341300240A
:1049F800014806F06FBA00BFE8120024084B1A1DE0
:104A0800981D03F1080110B49C1C9A6603F10A0270
:104A1800C3E91834C3E91B015DF8044B5A677047B2
:104A2800D812002438B5036871B9026A00F1280564
:104A380000F5AC74012A0CBF002140218BBB1D4B33
:104A48005722C0F858310DE0426A00F1C00500F560
:104A5800E874012A0CBF00214021EBB1164B5A2201
:104A6800C0F8D03100232046C4E901214FF4805218
:104A78004FF48061636262614FF48042C4E903319C
:104A88004FF48073C4E906234FF40033236201F026
:104A98009BFF58B1FFBEFEE7084B5822C0F8D03143
:104AA800E0E7074B5922C0F85831DBE7C5E9204455
:104AB800A56338BD10000240700002402800024083
:104AC800580002402DE9F043821D05468BB0031DB6
:104AD80005F10A010830CDE9052305F10C02AB699F
:104AE800CDE907010992002B3DD0EB69B3FA83F8B1
:104AF8004FEA58180123022205AE0AAF4FF0060903
:104B08000393CDE9012356F8044B2B79227893427D
:104B180016D02B68F3B1012B02D1F2B10A2304930A
:104B2800204600F07BFE03462046009300F06EFE10
:104B3800694602F013FEBE42E5D10BB0BDE8F08332
:104B4800697963789942E4D1B8F1000FF3D02B6802
:104B5800002BE0D1CDF81090E2E76378022B14BF68
:104B68000A230823DBE74FF00108C3E7534A036829
:104B7800934230B505468BB055D02032934252D07F
:104B88004F4A934204D02032934201D00BB030BD3B
:104B98004C4C4D48D4F8E03043F00103C4F8E03001
:104BA800D4F8E03003F001030593059BD4F8E03016
:104BB80043F00803C4F8E030D4F8E03003F0080309
:104BC8000693069BD4F8E03043F04003C4F8E03085
:104BD800D4F8E03003F040030793079BD4F8F03093
:104BE80043F40003C4F8F030D4F8F03003F40003C1
:104BF8000893089BFFF766FFD4F8D830296843F07C
:104C080001032F4A3048C4F8D830891AD4F8D8306C
:104C180018BF012103F001030993099B0BB0BDE8FC
:104C28003040FFF7FFBE274C2848D4F8E03043F067
:104C38000103C4F8E030D4F8E03003F00103009336
:104C4800009BD4F8E03043F01003C4F8E030D4F807
:104C5800E03003F010030193019BD4F8E03043F0F7
:104C68004003C4F8E030D4F8E03003F04003029386
:104C7800029BD4F8F03043F48003C4F8F030D4F841
:104C8800F03003F480030393039BFFF71BFFD4F872
:104C9800D830296843F00103084A0C48C4F8D830D2
:104CA800891AD4F8D83018BF012103F001030493FE
:104CB800049B0BB0BDE83040FFF7B4BE0458014078
:104CC800045C014000440258AC1500245013002431
:104CD800014802F0F1B900BFA8140024014802F00D
:104CE800EBB900BF20150024014802F0E5B900BF68
:104CF80004170024014802F0DFB900BF7C17002424
:104D08001A4A0368934210B40BD02032934208D059
:104D1800174A934216D02032934213D05DF8044BC1
:104D28007047144B0022D3F85442C3F85822002C81
:104D3800F4D0D3F84802D3E9931223465DF8044B24
:104D4800520818470B4B0022D3F8B044C3F8B424D8
:104D5800002CE3D0D3F8AC24D3F8A814D3F8A404D7
:104D6800520823465DF8044B184700BF0458014019
:104D7800045C014050130024184A0368934210B49D
:104D88000BD02032934208D0154A934217D02032D4
:104D9800934214D05DF8044B7047124BD3E9942426
:104DA8005208C3F85822002CF4D0D3E992012346C4
:104DB80001EB820100EB82005DF8044B1847094BB8
:104DC800D3F8AC24D3F8B0445208C3F8B424002C68
:104DD800E0D0D3F8A814D3F8A404E8E704580140B5
:104DE800045C0140501300242DE9F04F0C684FF487
:104DF8001776754F87B004FB06F6012C07EB060AF9
:104E0800C0F800A000F3A0800D468E464FF00008C1
:104E1800D44669A3D3E9002369A1D1E90001CDE90A
:104E2800022306ABCAF8508203EB8403CDE90401E0
:104E380053F810BC53F8083CCAE992880193BEE8BD
:104E48000F00ACE80F00BEE80F00ACE80F00019BB4
:104E58009EE80300CAF828B0CAF8C0308CE80300FE
:104E68002B69042B0CD8DFE803F0737D87910300CE
:104E78004FF41773554A03FB04739A64C3F8E02090
:104E8800AA692B6A002A43D0002B4FF4177308BF76
:104E9800022203FB047318BF0322DA6201221A6399
:104EA800EA696B6A002A40D1191E4FF4177318BFBC
:104EB800012103FB0473C3E931126B69022B05D886
:104EC800434A12F80380434A52F823904FF4177369
:104ED80006F128004246494603FB0474002338447F
:104EE80063646363E365C4F8DC30C4F8CC30C4F8A9
:104EF800F430C4E90F33C4E91533C4E93533C4E9E0
:104F08003B33022308F088F8002849D0FFBEFEE7AB
:104F1800191E4FF4177318BF012103FB0473C3E96B
:104F28000B12EA696B6A002ABED0002B4FF4177384
:104F380008BF022203FB047318BF0322C3F8C4206E
:104F48000122C3F8C820B8E7012007B0BDE8F08FF8
:104F58004FF417734FF4FA5203FB04739A64C3F8BF
:104F6800E0208DE74FF417734FF47A5203FB047374
:104F78009A64C3F8E02083E74FF417734FF4FA42BA
:104F880003FB04739A64C3F8E02079E74FF41773BE
:104F98004BF6803203FB04739A64C3F8E0206FE792
:104FA80006F1C000022342464946384408F034F866
:104FB8000028CAD0FFBEFEE704580140045C014047
:104FC80024580140245C014050130024007701005C
:104FD800284B01082C4B01080068704770B504681D
:104FE80082B015460E46C4F85032C4E99212069AA9
:104FF800C4F85422A269012A26D0626A012A9AB208
:1050080011D0294604F1C000019208F0C1F8236AC2
:10501800019A012B10D0294604F1280008F0B8F8AD
:10502800002002B070BD04F1C000019208F042F9FE
:10503800236A019A012BEED1314604F1280008F0C9
:1050480039F9002002B070BD226A012A9AB211D043
:10505800294604F12800019208F09AF8636A019A37
:10506800012B10D0294604F1C00008F091F8002067
:1050780002B070BD04F12800019208F01BF9636AC0
:10508800019A012BEED1314604F1C00008F012F963
:10509800002002B070BD00BF03681B69042B05D84F
:1050A800044A02EB830393ED000A70479FED020A5E
:1050B800704700BF384B010800803B470368D3F8AE
:1050C80058027047704700BF08B500F0AFFCBDE854
:1050D800084001F08FBB00BF064808B503680BB154
:1050E80002F04EFD044803681BB1BDE8084004F017
:1050F8009BBE08BD181C002410180024064808B5DB
:1051080003680BB102F03CFD044803681BB1BDE81D
:10511800084004F089BE08BD181C0024101800249B
:10512800064808B503680BB102F02AFD0448036875
:105138001BB1BDE8084004F077BE08BD181C002468
:1051480010180024364BDA6A520062D59A6A9A6AB5
:105158009A6A9B6A180600D500BE314B9B6A99066D
:1051680000D500BE2E4B9B6ADA0600D500BE2C4B3C
:105178009B6A1B0700D500BE294B9B6A980700D580
:1051880000BE274B9B6AD90700D500BE244B9B6AFB
:105198001A0400D500BE224B9B6A9B0400D500BEB2
:1051A8001F4B9B6AD80400D500BE1D4B9B6A19058E
:1051B80000D500BE1A4B9B6A5A0500D500BE184B95
:1051C8009B6A9B0500D500BE154B9B6AD80500D588
:1051D80000BE134B9B6A990100D500BE104B9B6A19
:1051E800DA0100D500BE0E4B9B6A1B0300D500BE3A
:1051F8000B4B9B6A580300D500BE094B9B6A990369
:1052080000D500BE064B9B6ADA0306D400BE00BE7A
:10521800FEE7DB6A9B07FAD5F8E700BEF6E700BFB2
:1052280000ED00E000F00EBC00F012BC2DE9F041EA
:10523800CEB004464C2200210AA80FF0EFFA202233
:10524800002102A80FF0EAFABC2200211EA80FF0E4
:10525800E5FA022005F05CFA2368012B4FF0000301
:1052680054D0534A02250193C820D16A514B21F0EA
:105278000101D162D26A02F0010201929A6942F4F4
:1052880040429A619B6903F440430193019B494A58
:1052980093699B04FCD548490224002201268B6AA5
:1052A80004274FF0080823F0030323438B620523E8
:1052B80016900AA818934FF48033109617941994EF
:1052C8001597CDF86880CDE91B222122CDE913443A
:1052D800CDE90A2305F006FF00B1FEE73F220323CC
:1052E800294602A8CDE9022300220823CDE9042398
:1052F80040224023CDE9062340234FF48062CDE9C4
:10530800082306F01DFA0346B8B1FEE7294A04252A
:105318000093F0209169264B41F4404191619269D4
:1053280002F440420092DA6A42F00102DA62DB6A71
:1053380003F001030093009BA9E720224FF480515A
:1053480025934FF440152B9280222D931EA830935D
:10535800269135914FF48071249234920C22339423
:10536800439140F2271120921022CDF884802A9789
:105378001F96CDE92E34CDE93B334FF48033CDE988
:1053880022463193002446930623CDE93E452793D0
:105398004FF48063094C2C931E94CDE9281206F033
:1053A8002BFC00B1FEE705F0D9F94EB0BDE8F0815D
:1053B8000004005800480258004402580F130F0315
:1053C8002DE9F0410D46044684B0D1E9000184E896
:1053D800030000F0FBFAAE79002E37D06F460BF0D1
:1053E800A3FAFEF727FD09F079FF0BF031F82B79C6
:1053F800002B54D16B799BB1BFF34F8FBFF36F8FE5
:105408003C4B0022C3F85022BFF34F8FBFF36F8F7E
:105418005A6942F400325A61BFF34F8FBFF36F8F5E
:105428004FF0FF320023002400253946324802920B
:105438008DF80C30CDE900450AF070FB2E480AF0D3
:10544800D5FB09F07BFB04B0BDE8F08120466F4630
:10545800FFF7ECFE012401F07BF94FF040534FF4C5
:10546800807838460193254BADF80040CDE90238E5
:1054780001F08CF919224FF0404338468DF80F405F
:10548800ADF80D808DF801408DF80A608DF8082080
:10549800019301F07BF9042001F068F99FE7154CAE
:1054A8000023C4F88430BFF34F8FD4F8803043F61C
:1054B800E07EC3F3C906C3F34E334FEA431C0CEA3C
:1054C8000E00334640EA8372013BC4F860225A1C3E
:1054D800F8D1ACF1200C1CF1200FF0D1BFF34F8FA5
:1054E800636943F480336361BFF34F8FBFF36F8FFA
:1054F80080E700BF00ED00E0081800240E0001035B
:1055080006F04EBA1C4B9B6803F17842B2F5003F97
:1055180025D3B3F5803F20D303F16042B2F5003FB5
:105528001FD303F15C42B2F5002F1CD303F1704284
:10553800B2F5902F19D303F14842B2F5803F16D344
:1055480003F18042B2F1806F13D303F1E043B3F566
:10555800000F2CBF0820072070470120704700204B
:1055680070470220704703207047042070470520C9
:1055780070470620704700BF00ED00E00348002395
:10558800034A044903600EF083BB00BF08180024D7
:1055980000000024CD50000810B4204C0022204BFD
:1055A80083B0D4F888101F4841F47001C4F88810FB
:1055B80019681D4C41F0010119601A611968084009
:1055C8001A4918609A61DA611A629A62DA621A6391
:1055D8005A639A63DA631A645A64186820F480205C
:1055E80018601A66D3F8DC2042F06042C3F8DC2069
:1055F800D3F8DC300193019B23681940B1F1005FB7
:1056080003D20B4B0122C3F80821044B4FF0006270
:105618009A6003B05DF8044B704700BF00ED00E0EE
:10562800004402587FEDF6EA0010005C0000FFFF1E
:105638000080005100F57171D0F8040408F066BECE
:10564800C1EBC10300EB8303D0F80404D3F80822AC
:1056580008F08ABEC1EBC10300EB8303D0F8040451
:105668009A6C08F0BFBE00BFD0F8040408F05EBF13
:10567800C16810B5044619B1022900D0FEE701211E
:10568800D4F8040408F03CFFD4F80404BDE8104042
:1056980008F00EBF10B50446D0F8040408F034FF33
:1056A8002268D2F8003E43F00103C2F8003E236AA4
:1056B80023B1034A136943F00603136110BD00BF09
:1056C80000ED00E0D0F8040408F028BFD0F8040486
:1056D80008F03CBFD0F8040408F036BFD0F8040442
:1056E80008F036BFD0F8040408F034BF9446D0F868
:1056F80098021A4608B5634604F0FAFE032802D851
:10570800024B185C08BD022008BD00BF5C4B0108B5
:10571800D0F8980208B504F079FF032802D8024BA4
:10572800185C08BD022008BD5C4B0108D0F898023F
:1057380008B504F0AFFF032802D8024B185C08BD77
:10574800022008BD5C4B01080A06D0F8983206D43E
:10575800C1EBC10103EB810191F8FE01704701F033
:105768007F01C1EBC10103EB810191F83E00704755
:10577800D0F8980208B504F0A5FE032802D8024B19
:10578800185C08BD022008BD5C4B0108D0F89802DF
:1057980008B504F013FF032802D8024B185C08BDB3
:1057A800022008BD5C4B0108D0F8980208B504F047
:1057B800DDFE032802D8024B185C08BD022008BD94
:1057C8005C4B0108D0F8C00209F072B9D0F8C002E9
:1057D80009F086B9D0F8C00209F08EB9704700BF49
:1057E800D0F8C00209F074B9D0F8C00209F074B951
:1057F800D0F8D00308B502F083FD032802D8024B85
:10580800185C08BD022008BD604B0108024B0278F5
:1058180053F82200704700BF844B0108024B4278BE
:1058280033F81200704700BF644B01088CB00A2897
:1058380014D8DFE800F01523313F4D5B6977859375
:1058480006004D4BD3F8E02042F48062C3F8E02014
:10585800D3F8E03003F480630B930B9B0CB07047D4
:10586800454BD3F8E02042F00102C3F8E020D3F81A
:10587800E03003F001030193019BEFE73E4BD3F8BF
:10588800E02042F00202C3F8E020D3F8E03003F051
:1058980002030293029BE1E7374BD3F8E02042F082
:1058A8000402C3F8E020D3F8E03003F004030393C4
:1058B800039BD3E7304BD3F8E02042F00802C3F84B
:1058C800E020D3F8E03003F008030493049BC5E715
:1058D800294BD3F8E02042F01002C3F8E020D3F8B7
:1058E800E03003F010030593059BB7E7224BD3F88C
:1058F800E02042F02002C3F8E020D3F8E03003F0C3
:1059080020030693069BA9E71B4BD3F8E02042F03F
:105918004002C3F8E020D3F8E03003F040030793D7
:10592800079B9BE7144BD3F8E02042F08002C3F8B2
:10593800E020D3F8E03003F080030893089B8DE75C
:105948000D4BD3F8E02042F48072C3F8E020D3F87E
:10595800E03003F480730993099B7FE7064BD3F883
:10596800E02042F40072C3F8E020D3F8E03003F4FA
:1059780000730A930A9B71E700440258704700BFFE
:105988000F4B1B780BB90120704710B504464FF434
:105998007A700C4AB0FBF3F31068B0FBF3F000F038
:1059A800C1FE0F2C00D808B1012010BD00222146ED
:1059B8004FF0FF3000F056FE034B00201C6010BD76
:1059C80058000024500000245C00002438B503204F
:1059D800124D00F035FE124C05F012FE114A124924
:1059E8009369C3F30323CB5C03F01F0320FA03F38B
:1059F8000E202B60926902F00F028A5C02F01F02EF
:105A0800D3402360FFF7BCFF10B10124204638BD06
:105A18000446FFF7B3FF204638BD00BF50000024FE
:105A280054000024004402584C4B0108034A044B1C
:105A380011681B780B441360704700BFDC1E0024FC
:105A480058000024014B1868704700BFDC1E002472
:105A580038B50446FFF7F6FF0546631C02D0044B31
:105A68001B781C44FFF7EEFF431BA342FAD338BD53
:105A780058000024014B1868000C70470010005CA7
:105A8800704700BF806B08B5FFF7FAFF08BD00BF7D
:105A9800836B5A6D12F0500F5A6D10B51DD11968ED
:105AA80042F400725A650A6812F0080FCA681BD0DF
:105AB80012F4406F0DD1CA6894040AD45A6D22F4C6
:105AC80080725A655A6DD10403D45A6D42F00102AE
